:020000040800F2
:10000000E006002089010008F11100087D110008B8
:10001000ED11000891020008A11500080000000081
:100020000000000000000000000000005112000865
:10003000E9030008000000002112000885120008F2
:10004000A3010008A3010008A3010008A301000800
:10005000A3010008A3010008A3010008A3010008F0
:10006000A3010008A3010008A3010008A3010008E0
:10007000A3010008A3010008A3010008A3010008D0
:10008000A3010008A3010008A3010008A3010008C0
:10009000A3010008A3010008A3010008A3010008B0
:1000A000A3010008A3010008A3010008A3010008A0
:1000B000A3010008A301000800000000A30100083C
:1000C000A30100080000000000000000A3010008D8
:1000D0000000000091150008A301000800000000C6
:1000E000A3010008A3010008A301000800F002F822
:1000F00000F03AF80AA090E8000C82448344AAF188
:100100000107DA4501D100F02FF8AFF2090EBAE885
:100110000F0013F0010F18BFFB1A43F0010318473B
:10012000CC150000EC150000103A24BF78C878C147
:10013000FAD8520724BF30C830C144BF04680C60ED
:10014000704700000023002400250026103A28BF35
:1001500078C1FBD8520728BF30C148BF0B60704739
:100160001FB51FBD10B510BD00F058F81146FFF7C0
:10017000F7FF01F051FA00F076F803B4FFF7F2FF51
:1001800003BC00F07DF8000009488047094800479B
:10019000FEE7FEE7FEE7FEE7FEE7FEE7FEE7FEE737
:1001A000FEE7FEE704480549054A064B7047000094
:1001B000E1120008ED000008E0000020E006002049
:1001C000E0020020E00200204FF0000200B51346DC
:1001D00094469646203922BFA0E80C50A0E80C5067
:1001E000B1F12001BFF4F7AF090728BFA0E80C5018
:1001F00048BF0CC05DF804EB890028BF40F8042B11
:1002000008BF704748BF20F8022B11F0804F18BF7D
:1002100000F8012B7047704770477047754600F033
:100220002BF8AE4605006946534620F00700854688
:1002300018B020B5FFF7B6FFBDE820404FF000062C
:100240004FF000074FF000084FF0000BAC46ACE851
:10025000C009ACE8C009ACE8C009ACE8C00921F0AD
:1002600007018D46704710B50446AFF30080204665
:10027000BDE81040FFF781BF004870471000002024
:1002800001491820ABBEFEE72600020070470000BF
:10029000FEE7000080B5012000F020F8022000F009
:1002A00023F980BD80B540F60040C4F201000F2163
:1002B000002200F027FA142000F016F9022000F0C6
:1002C0000DF8282000F00AF80C2000F007F80620AE
:1002D00000F004F8FFF7DEFF80BD0000B0B540F687
:1002E0000044C4F20104054620462021002200F00B
:1002F00009FA05F0F00220460F2100F003FA20462B
:100300001021012200F0FEF9012000F0EDF8204656
:100310001021002200F0F6F92801C2B220460F2178
:1003200000F0F0F920461021012200F0EBF9012045
:1003300000F0DAF820461021002200F0E3F9022054
:1003400000F0D2F8B0BD000080B56FF03F02002889
:1003500008BF6FF07F025018C0B2FFF7BFFF80BD2B
:10036000B0B540F60044C4F2010405462046202101
:10037000012200F0C7F905F0F00220460F2100F03D
:10038000C1F920461021012200F0BCF9012000F043
:10039000ABF820461021002200F0B4F92801C2B2C7
:1003A00020460F2100F0AEF920461021012200F076
:1003B000A9F9012000F098F820461021002200F051
:1003C000A1F9022000F090F8B0BD000010B501784E
:1003D000002908BF10BD441EC8B2FFF7C1FFA178B5
:1003E00001340029F8D110BD70470000EFF31080F0
:1003F00072B600BFFEE70000014690F82100022817
:1004000013D10868D1E90FC3026822F00E0202601E
:10041000026822F001020260012000FA03F2CCF827
:10042000042081F82100002002E0042088630120DC
:10043000002281F82020704780B590F82110022911
:1004400023D10268116821F00E0111602F21136879
:10045000C4F202018A4240F20401C4F2020123F014
:100460000103136016DD3023C4F202039A421DD04B
:100470004423C4F202039A421BD05823C4F202035D
:100480009A421BD14FF4803320E004218163012183
:10049000084680BD0823C4F202039A420CD01C23F4
:1004A000C4F202039A4209D110230FE04FF4807383
:1004B0000CE04FF4805309E0012307E001F1680CE0
:1004C0004FF08073624508BF4FF480130B60012129
:1004D00080F82110426B002180F820100AB190476B
:1004E0000021084680BD0000B0B5044600F010F9B8
:1004F000054640F20400C2F200000078611C18BFFB
:10050000044400BF00F004F9401BA042FAD3B0BD80
:100510002DE9F04F83B00E68002E00F0F08041F21C
:100520000002C4F20102032340F20C4E40F20047E5
:10053000904208BF0223C4F2010EC4F201070093E7
:10054000002401234FF0000B4FF000094FF00F0C77
:100550003DE040F60043C4F201039842009B08BF0F
:100560000123BB402B4342F82E304E684F46F20227
:10057000D9F8082054BF22EA080242EA0802D64607
:10058000DDF80490BA60DEF80020B30254BF22EA1E
:10059000080242EA0802CEF800207A68B30354BF8A
:1005A00022EA080242EA08027A603A68F30354BF7A
:1005B00022EA080242EA08023A6001230E680BF1BF
:1005C000010B36FA0BF204F1040400F0988003FAF0
:1005D0000BFA16EA0A08F1D04E684FF6FF72C1F224
:1005E0001002964210DC122E50D8DFE806F0330AD3
:1005F00041454F4F4F4F4F4F4F4F4F4F4F4F4F482A
:100600004C00D1F80C9041E04FF6FF72C1F221028C
:1006100096420FDC0022C1F2110296421AD000224B
:10062000C1F21202964215D00022C1F22102964276
:1006300010D02BE00022C1F2220296420AD0002202
:10064000C1F23102964205D00022C1F23202964236
:100650001CD100BF8A6842B1012A14BFC0F814A09F
:10066000C0F810A04FF0080910E04FF004090DE0A9
:10067000CA6802F1080909E04FF0000906E0CA68FB
:1006800002F1040902E0CA6802F10C09224603469D
:10069000B8F5807F24BF203A04331D680CFA02F6B7
:1006A000B54309FA02F22A431A60CA79D2067FF5E5
:1006B00084AF41F21803CDF80490C4F202031A6823
:1006C000F24642F001021A601A684FEA9B0E02F0ED
:1006D00001020292029AA7F57E72B94652F82E30B4
:1006E00004F00C0740F600060CFA07F5C4F2010608
:1006F000B04223EA05057FF42CAF002331E703B0B5
:10070000BDE8F08F002A08BF0904016170470000AE
:1007100040F2D800C2F200000068704740F20400C6
:1007200040F2D801C2F20000C2F2000100780A686B
:10073000104408607047000080B542F20000C4F227
:100740000200016841F010010160032000F066F82A
:100750000F2000F005F800F02BF8002080BD00000D
:10076000B0B540F20402C2F2000240F20001127879
:10077000C2F200014FF47A730968B3FBF2F2044647
:10078000B1FBF2F1084600F0E9FA0F2C4FF0010539
:100790000CD858B94FF0FF3021460022002500F058
:1007A0002DF840F20800C2F2000004602846B0BDF7
:1007B00082B041F21800C4F202000168042241F044
:1007C00001010160016801F0010101910199416895
:1007D00041F080514160406800F0805000900098E6
:1007E0000420C4F20100016862F31A61016002B0E2
:1007F0007047000080B500F0D5FE80BD70B514468E
:100800000D46064600F0DEFE2946224600F0F2FCC8
:100810000146304600F0DEFE70BD000080B500F0FD
:10082000EBFE80BD2DE9F04381B0002800F0878009
:1008300042F20008C4F202080446D8F800000D464F
:1008400000F0070088420CD2D8F8000020F0070022
:100850002843C8F80000D8F8000000F00700A842BC
:100860006DD1206841F204098107C4F2020917D54D
:10087000410705D5D9F8001041F4E061C9F800102E
:10088000010705D5D9F8001041F46051C9F80010EE
:10089000D9F80010A26821F0F0011143C9F8001046
:1008A000C00745D1D8F8000000F00700A8420CD9D5
:1008B000D8F8000020F007002843C8F80000D8F856
:1008C000000000F00700A84239D12068410707D591
:1008D000D9F80010E26821F4E0611143C9F8001072
:1008E000000708D5D9F80000216920F4605040EADB
:1008F000C100C9F8000000F077F8D9F8001041F203
:10090000B462C1F30311C0F60002515C40F2000270
:1009100020FA01F140F20800C2F200000068C2F2C1
:1009200000021160FFF71CFF002001B0BDE8F0835A
:100930006068012807D159F8041C89030CD40120F0
:1009400001B0BDE8F08359F8041C022802D18901E6
:10095000F5D501E08907F2D5D9F8001021F003019F
:100960000843C9F80000FFF7D3FE064641F2883776
:10097000D9F80000616800F00C00B0EB810F91D055
:10098000FFF7C6FE801BB842F2D9032001B0BDE8D4
:10099000F083000040F20000C2F2000000687047DF
:1009A00080B5FFF7F7FF41F20401C4F202010968C4
:1009B00041F2C462C1F30221C0F60002515CC8409A
:1009C00080BD000080B5FFF7E5FF41F20401C4F2ED
:1009D0000201096841F2C462C1F3C221C0F60002FB
:1009E000515CC84080BD000041F2040CC4F2020C0E
:1009F000DCF8003003F00C00082841F20020C0F2BF
:100A00007A0018BF7047C3F383420AA18A5CD903F6
:100A100005D440F60010C0F23D0050437047DCF8AA
:100A2000001008A3C1F34041595C5043B0FBF1F002
:100A3000704700BF02030405060708090A0B0C0DE6
:100A40000E0F1010010200002DE9F04182B00028C5
:100A500000F0C4800446007841F20006C007C4F2EA
:100A6000020643D0706800F00C00042817D07068AC
:100A700000F00C00082802D17068C0030FD465682C
:100A80009DB1B5F5803F06D03068B5F5A02F0DD1EA
:100A900040F480203060306840F480300CE03068F2
:100AA000800323D5606808BB98E0306820F480306C
:100AB0003060306820F480203060FFF729FE002D80
:100AC000054610D03068800310D4FFF721FE401B8C
:100AD0006428F7D908E100BFFFF71AFE401B64281D
:100AE0004FF0030077D830688003F5D42078800772
:100AF00018D5706810F00C0F07D0706800F00C006B
:100B0000082826D17068C00323D43068800702D536
:100B10002069012862D13068616920F0F80040EA5C
:100B2000C1003060207800073DD5A06938B30020AF
:100B3000C4F242200121C0F88014FFF7E9FD054608
:100B4000706A80072DD4FFF7E3FD401B0228F7D918
:100B5000CAE02069002840F20000C4F2422000F000
:100B60009A8001210160FFF7D3FD054630688007B8
:100B7000D1D4FFF7CDFD401B0228F7D9B4E0002007
:100B8000C4F242200021C0F88014FFF7C1FD0546E1
:100B9000706A800707D5FFF7BBFD401B0228F7D915
:100BA000A2E000F03FFB207840071BD4E5698DB13F
:100BB000706800F00C0008284CD1012D0ED0706830
:100BC000216A00F480328A4208D1616A00F4701010
:100BD000884203D1002002B0BDE8F081012002B0BC
:100BE000BDE8F081F069C0000BD4F0694FF0010856
:100BF00040F08050F061F06900F080500190019861
:100C000001E04FF0000847F20007C4F2000738681F
:100C1000C00510D4386840F480703860FFF778FD64
:100C2000054600BF3868C00505D4FFF771FD401BBD
:100C30006428F7D958E0E568002D3DD0012D05D096
:100C4000306A052D39D140F004003062306A40F03E
:100C5000010038E00027C4F2422700203866FFF781
:100C600057FD022D05460BD13068800154D5FFF7A2
:100C70004FFD401B02284FF00300F5D9ABE700BF42
:100C800030688001A6D5FFF743FD401B02284FF0D6
:100C90000300F5D99FE700210160FFF739FD054604
:100CA000306880077FF53EAFFFF732FD401B02281A
:100CB0004FF00300F4D98EE7306A20F00100306273
:100CC000306A20F004003062FFF722FD002D054657
:100CD00041F2883714D000BF306A800713D4FFF781
:100CE00017FD401BB842F7D9032002B0BDE8F081E0
:100CF000FFF70EFD401BB8424FF003003FF66BAF0D
:100D0000306A8007F4D4B8F1000F3FF44FAFF069B8
:100D100020F08050F06149E7206AB0F5803F05D1AE
:100D20007168A26821F40031114371607168626AD0
:100D300021F4741110430843706001203866FFF7F6
:100D4000E7FC0446306880013FF544AFFFF7E0FC64
:100D5000001B02284FF00300F4D93CE780B500F0F7
:100D600079FA80BD704700007047000070B582B00E
:100D7000036804461868D9685D6900F02F02202ACC
:100D800001F0200205D122B1204600F0E7FA02B0BE
:100D900070BD5FEA007C08D005F0010E11F4907F71
:100DA0008EF001054FD1002D4DD0226B0840C106B9
:100DB0003FD5012A3DD10020019018680190586864
:100DC000019001985869400600F19C80A08DE18D4A
:100DD000E28D002A1CBF401A5FEA004102D102B036
:100DE00070BD00BF216851E8031F226821F4907193
:100DF00042E80313002BF5D1216851E8051F226852
:100E000021F0010142E80513002BF5D1202184F8DF
:100E100042100021216300BF216851E8031F2268AE
:100E200021F0100142E80313002BF5D10221616388
:100E3000AEE0010600F1B2804006D0D5204600F0B9
:100E400081FA02B070BDC30718BF11F4807303D0DC
:100E5000636C43F00103636400F00406012383EA3A
:100E600096062E4303D1666C46F00206666400F0D7
:100E7000020683EA56032B4303D1636C43F0040359
:100E8000636452EA0E0218BF0122BCF1000F04D5C0
:100E90001AB1626C42F008026264626C002A9ED051
:100EA0000840800602D5204600F058FA20684069C4
:100EB000616C00F0400001F00801401878D0204635
:100EC00000F018FA2068406940066CD5206850E8A8
:100ED000050F216820F0400041E80502002AF5D105
:100EE000E06B00285FD041F2E521C0F600014163CC
:100EF000FFF7A2FA00283FF472AFE06B416B88471E
:100F000002B070BDE06B016849688AB2002A3FF404
:100F100066AFA38D9A42BFF462AFE1858069202855
:100F200031D000BF206850E8030F216820F48070A2
:100F300041E80302002AF5D1206850E8050F216836
:100F400020F0010041E80502002AF5D1206850E8B0
:100F5000050F216820F0400041E80502002AF5D184
:100F6000202084F842000020206300BF206850E861
:100F7000030F216820F0100041E80302002AF5D198
:100F8000E06BFFF739FA02206063A08DE18D401A13
:100F900081B22046FFF7E6FE02B070BD204600F0A9
:100FA00089FA02B070BD2046FFF7DEFE02B070BDC8
:100FB0002046FFF7D9FE0020606402B070BD00003B
:100FC000002804BF0120704710B5044690F8410086
:100FD00028B9002084F84000204600F021F82420A1
:100FE00084F841002068C16821F40051C1602046A6
:100FF00000F018FA2068016921F49041016141690B
:1010000021F02A014161C16841F40051C160002012
:101010002021606484F8411084F84210606310BDA0
:1010200070B586B0002640F600040596CDE903664B
:10103000C4F20104006804F540518842029601D0D0
:1010400006B070BD41F21800C4F20200016802ADA2
:1010500041F480410160016801F4804101910199EE
:10106000016841F0040101600068294600F00400B5
:10107000019001984FF40070029002200390032029
:1010800005902046FFF744FA4FF48060CDE9020650
:10109000204629460496FFF73BFA2520002100222E
:1010A000FFF7ACFB2520FFF7A5FB06B070BD0000E5
:1010B0002DE9F041044690F8420020281CBF022090
:1010C000BDE8F0810E4600294FF0010049D01746D7
:1010D000002A08BFBDE8F0814FF0000822201D461D
:1010E000C4F8448084F84200C4F83080FFF710FB55
:1010F000A785E785A1680746B1F5805F10D1206913
:10110000002814BF3046B046064609E02068002695
:1011100040686FF35F2028F8020BE08D0138E0850E
:10112000E08DD0B1204620213A462B4600F0ECF964
:10113000C8B9002EEAD0A068B0F5805F08D008B921
:10114000206928B12068406800F07F0002E000BFFD
:101150002068406806F8010BDFE7202084F8420091
:101160000020BDE8F081202084F842000320BDE883
:10117000F08100007047000070470000FEE70000AB
:1011800082B041F21800C4F20200016841F004018B
:101190000160016801F0040101910199016841F0C9
:1011A00008010160006800F008000090009802B09B
:1011B0007047000080B540F2700043F60001C2F2B3
:1011C0000000C4F2010100234FF00C0C4FF4165242
:1011D00080E80E00C0E90333C0E905C3C361FFF72F
:1011E000EFFE002808BF80BDFFF700F9FEE7000012
:1011F000FEE7000000F0070080F00703042B28BF83
:1012000004234FF0FF3C03380CFA03F338BF0020EF
:10121000994381400CFA00F022EA0000084370472D
:101220007047000081B040F20000C2F20000006888
:1012300044F6D351C1F26201A0FB0101480A0090BB
:1012400000BF0098411E00280091F9D101B07047FD
:1012500070470000B0B501380024B4EB106F1CBF1C
:101260000120B0BD4EF21005CEF2000568604FF0CF
:10127000FF300F2100F0AEF90720AC602860204657
:10128000B0BD000080B5FFF749FA80BDB0B590B0A1
:1012900006AC20462821FEF797FF02200690012089
:1012A0000A90102000250B9020460595CDE90355A6
:1012B000CDE901550D95FFF7C7FB78B90F20CDE9B2
:1012C00001054FF480600395CDE9040501A80021D4
:1012D000FFF7A8FA002804BF10B0B0BDFFF786F8EA
:1012E0007047000080B5406A0021C185C184FFF7C6
:1012F0003BFD80BD016851E8031F026821F4907135
:1013000042E80313002BF5D1016851E8051F02687C
:1013100021F0010142E80513002BF5D1016B0129F1
:101320000AD100BF016851E8031F026821F01001D3
:1013300042E80313002BF5D1202180F84210002150
:101340000163704780B50168CA6822F04002CA6034
:10135000202180F84110FFF70FFF80BD80B582B0DB
:1013600090F8421022291ED18268B2F5805F02D126
:10137000016900294AD0816AB2F5805F07D00AB9B5
:10138000026922B10268526802F07F0201E002683D
:1013900052680A700121826A11448162C18D01394B
:1013A0000A04C18501D002B080BD0168CA6822F07C
:1013B0002002CA60CA6822F48072CA604A6922F0B8
:1013C00001024A61202180F8421000214163026B32
:1013D000012A23D1016300BF016851E8031F02689D
:1013E00021F0100142E80313002BF5D101680A68CF
:1013F000D20606D5002201920A680192496801913D
:101400000199818DFFF7AEFC02B080BD0168826A50
:1014100049686FF35F2111800221BCE7FFF7AAFE44
:1014200002B080BD10B504460068D4E902C2236949
:10143000016921F4405111430161616943EA0C02E1
:101440001143C26841F20C639A431143C160416980
:10145000A26921F44071114343F60002C4F2010273
:101460009042416102D0FFF79BFA01E0FFF7AAFA30
:101470006268192148439100B0FBF1F048F21F5116
:10148000C5F2EB11A0FB01235A096FF0630302FBC5
:101490000300322303EB0010A0FB0101F02303EA59
:1014A0005113206803EB0212C1F343111144816010
:1014B00010BD000090F84110212923D18168B1F5B9
:1014C000805F01D1016931B1016A02684B1C03627E
:1014D0000978516007E0016A036831F8022B6FF365
:1014E0005F225A600162C18C01390A04C18418BFAD
:1014F00070470068C16821F08001C160C16841F097
:101500004001C160704700002DE9F04182B00446FF
:10151000006800680840884203D1002002B0BDE89E
:10152000F0811D460E4690465F1C04E0206800686E
:101530003040B04228D0002FF8D0FFF7E9F801463C
:101540004FF003000DB3A1EB0801A9421DD820689C
:10155000C1684907EAD5402EE8D0802EE6D0016860
:101560000907E3D5002501950168019140680190C4
:1015700001982046FFF7BEFE0820606484F84050C2
:10158000012002B0BDE8F081002002B0BDE8F0818A
:1015900080B540F27000C2F20000FFF7E7FB80BDAB
:1015A000FEE70000002848BF704700F01F0101223D
:1015B00002FA01F14EF200124009CEF2000242F8A6
:1015C000201070474EF60C50CEF200000068C0F3B9
:1015D000022070474EF6145300F00F02CEF20003C3
:1015E00009011A4400F16043B0F1FF3FC8BF03F5A1
:1015F00064421170704700004EF60C51CEF20001AB
:101600000A684FF6FF031A4060F30A2242F0806036
:1016100040F0FD7008607047FFF78EF8FFF736FE68
:10162000FFF7AEFDFFF7C6FDFEF73CFE00200021F0
:101630000027FEF789FE1AA0FEF7C8FE40F2B804A4
:1016400040F2700841F2CC6941F2DA65C2F200045E
:10165000C2F20008C0F60009C0F600054046214667
:101660001F224FF0FF33C4E90077C4E90277C4E9D1
:101670000477C4E90677FFF71BFD0646FEF70AFE6E
:1016800000200021FEF760FE2846002E08BF4846D5
:10169000FEF79CFE4FF47A70FEF726FFDEE700BFF0
:1016A00057616974696E6720666F72204E46432EDB
:1016B0002E2E0000000000000000000001020304C4
:1016C0000607080900000000010203044E464320FB
:1016D000646574656374656421004E4643205265F9
:1016E0006164204572726F722100000010170008BB
:1016F000000000201000000028010008201700084A
:1017000010000020D0060000440100080000000086
:1017100000127A000100000010000000000000002C
:04000005080000ED02
:00000001FF
